:020000040800F2
:10000000C80E002001010008052200086F1D00082D
:100010004D210008E70100083342000800000000FD
:10002000000000000000000000000000312B00086C
:100030004102000800000000B3250008332B00082F
:100040001B0100081B0100081B0100081B01000820
:100050001B0100081B0100081B01000843020008E7
:100060001B0100081B0100081B0100081B01000800
:100070001B0100081B0100081B0100081B010008F0
:100080001B0100081B0100081B0100081B010008E0
:10009000BD4100081B0100081B0100081B010008EE
:1000A0001B0100081B0100081B0100081B010008C0
:1000B0001B010008B12B00081B0100081B010008F0
:1000C0001B0100081B0100081B0100081B010008A0
:1000D0001B0100081B0100081B0100081B01000890
:1000E0001B0100081B0100081B010008DFF80CD0F1
:1000F00000F03CF8004800470D430008C80E0020FF
:100100000648804706480047FEE7FEE7FEE7FEE7B1
:10011000FEE7FEE7FEE7FEE7FEE7FEE7AD2B0008A1
:10012000ED00000840EA01039B0703D009E008C97D
:10013000121F08C0042AFAD203E011F8013B00F8AC
:10014000013B521EF9D27047D2B201E000F8012BF8
:10015000491EFBD270470022F6E710B513460A4647
:1001600004461946FFF7F0FF204610BD064C074D28
:1001700006E0E06840F0010394E807009847103477
:10018000AC42F6D3FFF7B6FFA4440008C44400080D
:1001900070B58C1810F8015B15F0070301D110F849
:1001A000013B2A1106D110F8012B03E010F8016B76
:1001B00001F8016B5B1EF9D12B0705D40023521EF9
:1001C0000DD401F8013BFAE710F8013BCB1A921C61
:1001D00003E013F8015B01F8015B521EF9D5A1425F
:1001E000D8D3002070BDFEE770B5144E044600223F
:1001F0001021304600F047F9012004F03AF80021C0
:100200005C2004F019F93225B4FBF5F0C1B24820A6
:1002100004F012F9B4FBF5F0010A492004F00CF9DE
:100220000121472004F008F901221021304600F096
:100230002AF9BDE87040042004F01BB80008014012
:100240007047022000F016B872B6FEE770B504469B
:1002500000F01EF90546601C02D0044800780444F2
:1002600000F016F9401BA042FAD370BD9C0000209C
:1002700070470000044910B50A68024202D00860C5
:10028000FFF7F6FF10BD0000140401402DE9F84F00
:10029000DFF8B8910024A9F1040B23460F2709F1D8
:1002A000040AABF1040EC9E00125A5402A40AA4288
:1002B0007DD1674ED1F804C0ACEB0608B44532D00E
:1002C00014DCBCF1030F3AD009DCBCF1000F2AD0DA
:1002D000BCF1010F1CD0BCF1020F31D11DE0BCF10B
:1002E000110F17D0BCF1120F2AD119E0B8F5881FF1
:1002F00019D006DCB8F5803F15D0B8F5801F1FD1A6
:1003000011E0B8F5001F0ED0B8F5041F18D10AE0AF
:10031000CB6815E0CB681B1D12E0CB6808330FE0FB
:10032000CB680C330CE08B682BB1012B4FF008032A
:1003300003D0456104E0042302E0056100E00023EE
:10034000FF2A01D8064601E000F104064FEA8405C1
:1003500001D9A5F12005D6F8008007FA05FC28EAA6
:100360000C0803FA05F548EA0508C6F800804D6850
:10037000ED0062D5374DAE6946F00106AE61AD695C
:1003800024F0030605F001050095334D06EB050C3E
:10039000DCF80850A607360F07FA06F825EA080524
:1003A000DFF8B880404503D14FF0000817E044E083
:1003B000DFF8AC80404502D14FF001080FE0DFF8D4
:1003C000A480404502D14FF0020808E0DFF8988091
:1003D000404502D14FF0030801E04FF0040808FA4D
:1003E00006F848EA0508CCF808804D68D9F800609E
:1003F000ED024D4601D5164300E096432E604D6850
:10040000DAF80060AD02554601D5164300E0964388
:100410002E604D68DBF80060AD035D4601D51643E4
:1004200000E096432E604D68DEF80060ED037546EF
:1004300001D5164300E096432E60641C0D682A46E1
:10044000E5407FF431AFBDE8F88F000008040140BB
:10045000000011100010024000000140000801409F
:10046000000C014000100140001401408068084069
:1004700000D001207047C26821EA02030A4043EA23
:100480000241016170470AB1016170470904FBE74D
:1004900001488068704700009C00002070B504008F
:1004A00025D094F83D00002520B984F83C50204622
:1004B00000F0B8F8242084F83D002068016821F09D
:1004C000010101602068016841F400410160206879
:1004D000016821F40041016000F02AFF4D4A616883
:1004E000914201D84C4900E04C49884201D2012098
:1004F00070BD4B492368B0FBF1F15E6826F03F0602
:100500000E435E606368934206D94FF49673594375
:100510004FF47A73B1FBF3F12368491C1E6A26F08D
:100520003F06314319626168914210D84900401E6C
:10053000B0FBF1F2521CC2F30B02042A01D20420D8
:1005400022E0B0FBF1F0401CC0F30B001CE0A268FD
:10055000F2B301EBC10303EB0116431EB3FBF6F349
:100560005B1C43F480431B0549D092B301EBC102ED
:1005700002EB0111401EB0FBF1F0401CC0F30B0078
:1005800040F4804040F400402168CA694CF6FF7393
:100590009A431043C861D4E90710014320680268F8
:1005A00022F0C00211430160D4E903010143206835
:1005B000826848F2FF339A4311438160D4E9050110
:1005C00008432168CA6822F0FF021043C86001E0B6
:1005D0000EE016E02068016841F001010160256429
:1005E000202084F83D00256384F83E50002070BD33
:1005F00001EB4106431EB3FBF6F35B1CB3E701209E
:10060000C2E701EB4101401EB0FBF1F0401CC0F31A
:100610000B00B7E7A086010080841E0000093D00A2
:1006200040420F0010B586B0002100910191029167
:1006300003910068104988421BD1104CA06940F01A
:100640000800A061A069694600F0080004904FF41A
:100650004060009012200190032003900848FFF7AB
:1006600015FEE06940F48000E061E06900F480007C
:10067000049006B010BD0000005800400010024079
:10068000000C014002488168027811448160704783
:100690009C000020074810B5016841F0100101607E
:1006A000032000F075F80F2000F006F800F024F8A1
:1006B000002010BD0020024070B50D4D04464FF4DF
:1006C0007A712878B1FBF0F00A490968B1FBF0F0C3
:1006D00001F08CF848B9102C07D200222146501E98
:1006E00000F036F800206C6070BD012070BD000085
:1006F0009C000020A80000200C4808B5816941F04A
:1007000001018161816901F001010091C16941F03C
:100710008051C161C06900F0805000900448416878
:1007200021F0E06141F00071416008BD001002401D
:1007300000000140002809DB00F01F020121914068
:100740004009800000F1E020C0F80011704700006F
:10075000F0B40E4B1B680C46C3F30223C3F107052C
:10076000042D00D90425191D072901D2002300E01A
:10077000DB1E012606FA05F1491E214099409E40E4
:10078000761E16403143F0BC03F054BD0CED00E082
:10079000064900F0070208684FF6FF03184040EAD8
:1007A0000220034A10430860704700000CED00E08F
:1007B0000000FA0510B50C0607D501F0070101EBA2
:1007C000810100EBC100283005E001EB810100EB65
:1007D000C10000F5B47099B232B1012202730181F7
:1007E000190C4181002010BD00220273C180F9E77D
:1007F000704701EB810200EBC202D0F8EC02D26B31
:1008000002F0BBBC01EB810200EBC202D0F8EC02AB
:10081000D2F87C2102F014BD70B504460B0601F03D
:10082000070000EB800104EBC1014FF001024FF023
:10083000000503D581F82920283103E081F86951AA
:1008400001F5B471087094F8A802012808D084F862
:10085000A822206803F046F984F8A852002070BD51
:10086000022070BD70B5044601F00F00626890422E
:1008700001D9012070BD0B0601F0070000EB8001DB
:1008800004EBC1014FF001024FF0000503D581F8E0
:100890002920283103E081F8695101F5B4718D7088
:1008A000087094F8A802012808D084F8A8222068CB
:1008B00003F0B5F984F8A852002070BD022070BD85
:1008C0002DE9F05F04685FEA424C0B788D69B4F85B
:1008D00050C04FF000064BF68F7948F2800A48F678
:1008E0008F7B48F2C00E4FF480672AD54FF0020884
:1008F00008EBC308C44407EB4C07E45BC4F30904EA
:10090000A54203D32D1B8D6101D00BE08E610668DB
:1009100036F8235005EA090585F4005545EA0A052D
:1009200026F82350520609D50D78036833F82520A0
:1009300002EA0B0242EA0E0223F8252084B30A8958
:1009400029E04FF0060808EBC308C44407EB4C0746
:10095000E45BC4F30904A54203D32D1B8D6101D0D0
:100960000BE08E61066836F8235005EA090585F428
:10097000005545EA0A0526F82350520609D40B789B
:10098000056835F8232002EA0B0242EA0E0225F838
:1009900023202CB14A8949690068234603F018FCDA
:1009A0002046BDE8F09F2DE9F05F054600680C4643
:1009B0005FEA426C16468B692278B0F850C048F660
:1009C0008F774CF280094FF4004B4FF6FF7E4FF4C7
:1009D000806A4FF0000172D54FF0020808EBC208A0
:1009E000E0440AEB480C30F80C00C0F309008342E5
:1009F00011D91B1AA3610FD0730407D52E6836F8DE
:100A000022303B4043EA090326F8223094F82420A0
:100A1000012A47D052E1A161607810B1012813D0BA
:100A20001AE02868B0F85030184400EB0210B0F813
:100A30000424C2F30902A0F80424B0F8042442F408
:100A40000042A0F8042407E02868B0F850301844A9
:100A500000EB0210A0F804146278286812B1012A91
:100A600011D018E0B0F850100844217800EB0110C4
:100A7000B0F80C14C1F30901A0F80C14B0F80C1470
:100A800041F4004105E0B0F850201044227800EB1A
:100A90000210A0F80C1421782846FFF7AAFE700473
:100AA00072D40BE1626902446261E2690244E2616C
:100AB0002369226A9A4203D31846111A04E03EE0E1
:100AC00084F824100AB110462162617811B101291D
:100AD00029D031E02968B1F850201144227801EB87
:100AE0000211B1F80424C2F30902A1F8042401F2AE
:100AF00004413E2807D94209C30600D1521E0B8883
:100B00004BEA822207E048B14208C30700D0521CDA
:100B10000B880EEA822213430B800DE00A8842F410
:100B200000420A8008E02968B1F850201144227878
:100B300001EB0211A1F8040483B22289BAE04FF05C
:100B4000060808EBC208E0440AEB480C30F80C0039
:100B5000C0F30900834211D31B1AA3610FD07304A1
:100B600007D42E6836F822303B4043EA090326F8C2
:100B7000223094F82420012A51D09FE0A1616078AE
:100B800018B1012814D01BE03FE02868B0F85030BD
:100B9000184400EB0210B0F80424C2F30902A0F8D4
:100BA0000424B0F8042442F40042A0F8042407E02E
:100BB0002868B0F85030184400EB0210A0F8041474
:100BC0006278286812B1012A11D018E0B0F85010EC
:100BD0000844217800EB0110B0F80C14C1F30901AE
:100BE000A0F80C14B0F80C1441F4004105E0B0F882
:100BF00050201044227800EB0210A0F80C14217849
:100C00002846FFF7F6FD700458D42278296831F899
:100C10002200384040EA090021F822004EE06269D3
:100C200002446261E2690244E2612369226A9A42F3
:100C300003D31846111A216204E00AB1104621625A
:100C400084F824106278296812B1012A28D02FE094
:100C5000B1F850201144227801EB0211B1F80C24B4
:100C6000C2F30902A1F80C2401F20C413E2807D975
:100C70004209C30600D1521E0B884BEA822207E0CC
:100C800048B14208C30700D0521C0B880EEA8222EA
:100C900013430B800CE00A8842F400420A8007E00C
:100CA000B1F850201144227801EB0211A1F80C0494
:100CB000628983B26169286803F0A8FA22782968FA
:100CC00031F8220048F6BF73184080F0300048F237
:100CD0008003184321F822000020BDE8F09F2DE991
:100CE000F04104460F0601F0070000EB800104EB21
:100CF000C1014FF001064FF0000503D581F82960CE
:100D0000283103E081F8695101F5B471022B0870B4
:100D10000A61CB7000D10D7194F8A802012809D0A6
:100D200084F8A862206802F08DFD284684F8A85255
:100D3000BDE8F0810220FBE710B501F0070404EBE9
:100D4000840100EBC101C1E95F230022C1F88421C5
:100D500081F8692181F86841006801F5B47102F0F9
:100D6000B3FF002010BD70B504460D4601F007002A
:100D70006168884201D9012070BD29064FF0000644
:100D80004FF0010207D500EB800104EBC10181F8AF
:100D90002920283107E005EB850104EBC10181F82A
:100DA000696101F5B4718A70087094F8A80201288D
:100DB00007D084F8A822206802F06DFF680702D0EF
:100DC00006E0022070BD04F52C71206802F025FFBA
:100DD00084F8A862002070BD10B501F0070404EB90
:100DE000840100EBC101C1E90F23012281F84C20ED
:100DF0008B6400234B6481F8292001F8284F006898
:100E000002F062FF002010BD1FB50446006803F029
:100E1000DBF9010403D5204601F0F5F91FBD4105BA
:100E20000DD5206830F8441F21F4806101802046F0
:100E300000F010F90021204600F027F91FBD410401
:100E400005D5206830F8441F21F4804174E0810406
:100E500005D5206830F8441F21F400516CE0C1042E
:100E600014D5206830F8401F21F00401018020686B
:100E700030F8401F21F008010180204600F0FDF805
:100E8000206830F8441F21F4805155E0010540D519
:100E9000D4F800200020694632F8203021F81030C4
:100EA000401CC0B20828F7D332F8400F40F00100D0
:100EB0001080206830F8402F22F001020280206864
:100EC000B0F844205205FBD530F8442F22F480625C
:100ED00002800020236831F8102023F82020401CD5
:100EE000C0B20828F6D3206830F8401F41F008014E
:100EF0000180206830F8441F21F4006101802068DF
:100F000030F8401F41F004010180204600F0F2F863
:100F10001FBD810509D5206830F8441F21F40071F8
:100F20000180204600F0ADF81FBDC005FCD520684B
:100F300030F8441F21F4807101801FBD2DE9F0417C
:100F400086B0040004D094F8A902002520B108E07E
:100F5000012006B0BDE8F08184F8A852204600F0D8
:100F60005BF8032084F8A902206802F04FFE04F128
:100F70001001142288466846FFF7D4F894E80F0061
:100F800002F0AEFD0227D0BB0021206803F036F945
:100F9000002001260EE000BF00EB800104EBC10140
:100FA00081F8296001F8280F401CCD700D614D615A
:100FB000C0B28D6161688142EED8002012E000BFAE
:100FC00000EB800104EBC10181F8695181F86801EF
:100FD00081F86B51C1F87851C1F87C51401CC0B206
:100FE000C1F8805161688142EAD8142241466846BE
:100FF000FFF798F894E80F0002F0FFFD10B184F8B5
:10100000A972A5E784F8245084F8A962206802F048
:10101000F2FD00209DE7000008B500680B498842FA
:1010200012D10B48C16941F40001C161C0690022BD
:1010300000F40000009011461420FFF789FBBDE882
:1010400008401420FFF776BB08BD0000005C00409C
:101050000010024070B5044680680125022801D0C6
:10106000FFF7F2F82946D4F8EC0202F0C2F9D4F8FE
:10107000EC02BDE8704002F07EB9D0F8EC0202F05C
:10108000A2B9D0F8EC0202F0A8B910B5044690F865
:10109000A80201280BD0012084F8A80284F82410AB
:1010A000206803F0ADF8002084F8A80210BD0220EB
:1010B00010BDD0F8EC2200F52C71104602F0A5B955
:1010C00010B5044690F8A802012810D0012084F839
:1010D000A802206803F069F801212046FFF788FB89
:1010E000206802F086FD002084F8A80210BD0220CE
:1010F00010BD000010B50446D0F8EC0202F0C4F9AF
:10110000A069002804D00348016841F0060101608D
:1011100010BD000010ED00E02DE9F8430546007811
:10112000354CC00754D0E0690026C00008D4E069FF
:1011300040F08050E061E069012600F080500090AE
:101140002E480168C90512D40168804641F48071B7
:101150000160FFF79DF9074605E000BFFFF798F92A
:10116000C01B642823D8D8F80000C005F6D5206A33
:1011700010F4407021D0A98801F4407181421CD044
:10118000206A1F49012220F440700A6000220A6090
:101190002062C00711D0FFF77BF9074641F288387B
:1011A00008E000BFFFF774F9C11B414502D90320D5
:1011B000BDE8F883206A8007F4D5206A696820F4C6
:1011C0004070084320621EB1E06920F08050E06169
:1011D0002878800705D56068A96820F44040084356
:1011E00060602878C00605D56068E96820F4800052
:1011F000084360600020DBE7001002400070004000
:10120000400442422DE9F0470F46050061D0434EAD
:10121000306800F00700B84209D2306820F00700BB
:1012200038433060306800F00700B84251D1286878
:101230003B4C810712D5400703D5606840F4E0605D
:1012400060602878000703D5606840F460506060F3
:101250006068A96820F0F000084360602878C00743
:1012600028D06868012810D02168022810D089078A
:1012700000292EDA616821F0030101436160FFF764
:1012800007F9804641F288390DE021688903EFE7CC
:101290008901EDE7FFF7FCF8A0EB0801494502D909
:1012A0000320BDE8F0876068696800F00C00B0EBCF
:1012B000810FEFD1306800F00700B8420BD93068D9
:1012C00020F0070038433060306800F00700B84273
:1012D00001D00120E5E72878400705D56068E96876
:1012E00020F4E060084360602878000706D5606855
:1012F000296920F4605040EAC100606000F028F8DD
:101300006168084AC1F30311515CC840064908608E
:1013100006480068FFF7D0F90020C2E7002002402D
:10132000001002408A440008A8000020A00000200D
:101330000448054900684968044AC1F30221515C28
:10134000C8407047A8000020001002409A440008DE
:101350000E4A51680E4801F00C03042B11D0082BE3
:101360000FD10C48C1F38343C903C05C0AD551684F
:10137000084AC1F34041921E515C054A5043B0FBFC
:10138000F1F07047044948437047000000100240E4
:1013900000127A007A44000800093D002DE9F84F58
:1013A000040070D02078C04DC00749D06868C0F3F1
:1013B0008100012807D06868C0F38100022809D1A4
:1013C0006868C00306D52868800339D5606800289E
:1013D000E7D035E06068B0F5803F0BD010B1B0F5D4
:1013E000A02F11D0286820F480302860286820F4CD
:1013F000802002E0286840F480302860606890B166
:10140000FFF746F806460AE0286840F48020286086
:10141000F0E700BFFFF73CF8801B642873D828680A
:101420008003F7D50CE0FFF733F8064605E000BF70
:10143000FFF72EF8801B6428F0D828688003F7D4C3
:1014400020789A4E80074FF001094FF0000839D5F7
:10145000686810F00C0F07D06868C0F3810002289C
:1014600009D16868C00306D42868800714D52069AC
:10147000012808D110E02069B0B1C6F80090FFF74C
:1014800007F8074605E00AE1FFF702F8C01B02284B
:10149000C4D828688007F7D52868616920F0F8006B
:1014A00040EAC10028600DE0C6F80080FEF7F0FFBA
:1014B000074604E0FEF7ECFFC01B022823D828688B
:1014C0008007F7D4207800072CD57948A169D9B1D5
:1014D000C0F80090FEF7DCFF074604E0FEF7D8FFF7
:1014E000C01B02280FD8686A8007F7D571484FF4EF
:1014F000FA510068B0FBF1F0009000BF0098411E67
:101500000091FAD20EE080E0C0F80080FEF7C0FF44
:10151000074604E0FEF7BCFFC01B022875D8686AC6
:101520008007F7D42078400760D5E8690027C0001D
:1015300008D4E86940F08050E861E869012700F0CC
:10154000805000905C480168C90513D40168834647
:1015500041F480710160FEF79BFF824606E000BF08
:10156000FEF796FFA0EB0A0064284ED8DBF80000D7
:10157000C005F5D5E06801280AD008B1052813D0C8
:10158000286A20F001002862286A20F0040002E0A6
:10159000286A40F001002862E06841F2883B98B177
:1015A000FEF776FF82460BE0286A40F004002862CE
:1015B000EEE700BFFEF76CFFA0EB0A0159455AD8D1
:1015C000286A8007F6D50CE0FEF762FF824605E048
:1015D000FEF75EFFA0EB0A0159454CD8286A800748
:1015E000F6D41FB1E86920F08050E861E06988B363
:1015F0006968C1F38101022944D00228C6F86080DD
:1016000004D0FEF745FF044638E034E0FEF740FF23
:10161000074604E0FEF73CFFC01B02282BD82868D1
:101620008001F7D4206AB0F5803F05D16868A168D1
:1016300020F4003008436860D4E908010843696871
:1016400021F4741108436860C6F86090FEF720FF2B
:10165000044606E025E000BFFEF71AFF001B022843
:1016600009D828688001F7D51BE000BFFEF710FFFE
:10167000001B022802D90320BDE8F88F28688001EA
:10168000F4D40EE00128F7D06868226A00F48031B3
:10169000914204D1616A00F47010884201D00120A7
:1016A000EAE70020E8E700000010024000004242A4
:1016B00080044242A80000200070004070B5040081
:1016C00008D0606A002538B12561656194F8510041
:1016D00040B10CE0012070BD6068B0F5827FF5D0AC
:1016E000E561F3E784F85050204600F047F8022007
:1016F00084F851002068016821F040010160A08851
:10170000218900F4827001F404410843A18901F4A5
:1017100000610843217C01F002010843217D01F0B2
:1017200001010843218B01F400710843217F01F07E
:101730003801084394F8201001F080010843218DFE
:1017400001F40051084321680860A069042101EAFE
:10175000104021684860A06AB0F5005F03D1A08DF9
:10176000216880B208612068C16921F40061C1610B
:101770006565012084F85100002070BD30B585B04A
:101780000024009401940294039400681449884250
:1017900023D11448816941F480518161816901F448
:1017A00080510491816941F00401816180690E4D8D
:1017B00000F004000490A02000900220019003207B
:1017C000039069462846FEF761FD4020CDE90004FC
:1017D000694628460294FEF759FD05B030BD000069
:1017E00000300140001002400008014010B5401ECA
:1017F000B0F1807F01D3012010BD4FF0E024606183
:101800000F21601702F016FD0020A0610720206163
:10181000002010BD7047704770B590F83C20012A39
:1018200026D0012480F83C40022280F83D20036845
:101830005A689D6822F070060A6832435A600D4B60
:1018400002689A4208D0B2F1804F05D00A4B9A4202
:1018500002D00A4B9A4204D1496825F0800319430B
:10186000916080F83D40002180F83C10084670BD32
:10187000022070BD002C0140000400400008004020
:1018800010B5040003D094F83D0010B107E001202A
:1018900010BD002084F83C00204600F01FF8022014
:1018A00084F83D00211D206801F088F9012084F8AA
:1018B000460084F83E0084F83F0084F8400084F835
:1018C000410084F8420084F8430084F8440084F81E
:1018D000450084F83D00002010BD000008B50068F8
:1018E0000B49884212D10B48C16941F00201C16124
:1018F000C069002200F00200009011461D20FEF792
:1019000027FFBDE808401D20FEF714BF08BD0000FA
:10191000000400400010024090F83D10012901D061
:1019200001207047022180F83D100168CA6842F02A
:101930000102CA6000680B49884208D0B0F1804FAC
:1019400005D00949884202D00849884204D18168FB
:1019500001F00701062903D0016841F0010101608F
:1019600000207047002C01400004004000080040A7
:1019700070B5044690F83C000025012817D00126D8
:1019800084F83C60022084F83D002068826822F0E0
:10199000770222F47F4282600868502838D00DDC3C
:1019A00020284FD005DC90B3102811D14AE0022046
:1019B00070BD302846D040280AD13BE060282FD0A7
:1019C00070280DD0B0F5805F03D0B0F5005F12D065
:1019D000012584F83D60002084F83C00284670BD55
:1019E000CB68D1E90121206801F02BF920688168DA
:1019F00041F0770109E0CB68D1E90121206801F0CD
:101A000020F92068816841F480418160E1E719E0B4
:101A1000CA684968206801F026F95021206806E06C
:101A2000CA684968206801F02FF96021206801F038
:101A300012F9CEE7CA684968206801F014F940211C
:101A40002068F4E7226801461046F0E72DE9F041EE
:101A50000D46040003D094F83D0018B108E00120C1
:101A6000BDE8F081002084F83C00204600F040F8FA
:101A7000022084F83D002068816844F20702914307
:101A80008160211D206801F099F8226890689169B1
:101A9000166A2B68AF69034340F20330814341EA81
:101AA0000721A868EF6908434FF6FC418843E968BD
:101AB00040EA0720014328692F6A000140EA073005
:101AC000084369686D6926F0220646EA0515294330
:101AD00093602268906154F8460B0162012004F87B
:101AE0001F09E0752076E0762077A0750020B7E723
:101AF00000B585B000210091019102910391006829
:101B0000B0F1804F18D10D48C16941F00101C161A8
:101B1000C16901F001010491816941F00401816111
:101B20008069694600F004000490032000900120C1
:101B300002900348FEF7AAFB05B000BD001002406A
:101B40000008014070B590F83E60044690F83F50A0
:101B500090F8423090F84320022021B104290ED0A1
:101B6000012E1BD114E0012E18D1012B16D184F8BF
:101B70003E0084F8420001220021206820E0012D6F
:101B80000CD1012A0AD184F83F0084F8430014E004
:101B9000012D03D1012B01D1012A01D0012070BDFB
:101BA00084F83E0084F83F0084F8420084F8430043
:101BB00001220021206801F037F801220421206869
:101BC00001F032F82068016841F001010160002055
:101BD00070BD704770B50446006801694FF000059C
:101BE000C943890715D4C168C943890711D4E91EBF
:101BF000016101202077206880698007204602D09B
:101C0000FFF7E7FF04E000F098F8204600F096F8B0
:101C1000257720680169C943490717D4C168C943BA
:101C2000490713D46FF00401016102202077206876
:101C3000806910F4407F204602D0FFF7CAFF04E01D
:101C400000F07BF8204600F079F8257720680169DC
:101C5000C943090716D4C168C943090712D46FF0F4
:101C600008010161042020772068C06980072046B0
:101C700002D0FFF7AEFF04E000F05FF8204600F06E
:101C80005DF8257720680169C943C90617D4C16882
:101C9000C943C90613D46FF01001016108202077F1
:101CA0002068C06910F4407F204602D0FFF791FF02
:101CB00004E000F042F8204600F040F82577206864
:101CC0000169C943C90708D1C168C943C90704D11B
:101CD000891E0161204600F033F820680169C9437C
:101CE000090609D4C168C943090605D46FF080010B
:101CF00001612046FFF78EFD20680169C94349064E
:101D000009D4C168C943490605D46FF04001016197
:101D1000204600F02BF820680169C94389060BD4DE
:101D2000C168C943890607D46FF0200101612046CC
:101D3000BDE87040FFF76FBD70BD70477047000091
:101D40000948094A8169491C8161002012F1220277
:101D500032F8101011B1491E22F81010401CC0B208
:101D60000428F5D370470000000000207047FEE70C
:101D7000F0B500230A24302537261F4611E000BFA6
:101D8000B4EB107F02D905EB107C01E006EB107C70
:101D900001F813C001EB430C00015B1C8CF80170CF
:101DA000DBB29342ECD3F0BD70B5114D00244FF47B
:101DB00000512846FEF75AFB88B14FF400412846EF
:101DC000FEF754FB68B14FF480412846FEF74EFB06
:101DD00048B1A9142846FEF749FB30B106E00124BA
:101DE00004E0022402E0032400E00424204670BD45
:101DF000000C014070B5FFF7D7FF1D4C0125A07105
:101E0000627A20EA020142408243E17122726072EA
:101E1000012904D0022904D0032905D103E025704B
:101E200002E0657000E0A5700020012A04D0022ABB
:101E300004D0032A05D103E0207002E0607000E0C6
:101E4000A070042912D1A08940F6B83100F5FA70CB
:101E500080B2A081884202D94FF4FA70A08180B28A
:101E6000FEF7C2F9E5702079401C207170BD0000BA
:101E7000000000202DE9F041134CE078012821D129
:101E8000D4E90510411AB1F5FA7F1BD30F4E4FF478
:101E90000055606129463046FEF7EDFA607900276B
:101EA000401CC0B26071062808D120790122401E72
:101EB0002071677129463046FEF7E5FA207900283F
:101EC00000D1E770BDE8F081000000200010014063
:101ED0002DE9F04186B00026304800960196029622
:101EE0000396816941F010018161816901F010015F
:101EF0000491816941F020018161816901F0200133
:101F00000491816941F004018161816901F004015A
:101F10000491816941F0080181618069012200F02A
:101F200008001F4F5403049021463846FEF7ABFAD1
:101F3000DFF87080002210214046FEF7A4FA0094DA
:101F4000022501240395CDE9014669463846FEF78E
:101F50009DF910208DE83100694640460395FEF753
:101F600095F911486946CDE90050104D0294284674
:101F7000FEF78CF94FF47040CDE9000669460294F3
:101F80002846FEF783F9002201210720FEF7E0FB37
:101F90000720FEF7CFFB06B0BDE8F081001002403D
:101FA000001001400008014000002110000C014019
:101FB0000D4810B50B4901600C49416000214FF4F8
:101FC00080428160C0E9031241618161C1610162A7
:101FD000FEF764FA002803D0BDE81040FEF734B9DC
:101FE00010BD000000580040C4010020801A060007
:101FF000114810B50F4901604FF482714160002112
:1020000002228160C0E90312012242615202826110
:102010001022C0E907214162510281620A21C16296
:10202000FFF74CFB002803D0BDE81040FEF70CB9C9
:1020300010BD0000003001401802002010B58CB027
:1020400024216846FEF787F80024154809944FF0CC
:1020500080410A94C0E900144FF6FF71C0E90241C3
:10206000046184610320CDE900040120CDE902046C
:102070000494CDE905400794694609480894FFF7A0
:10208000E5FC08B1FEF7E0F8099409A904480A94B0
:10209000FFF7C2FB002801D0FEF7D6F80CB010BD48
:1020A0007002002010B586B00024174800940194F7
:1020B0000294039404941349059401604721C0E9F4
:1020C000011440F2E731C0E903148461FFF7D8FB43
:1020D00008B1FEF7B9F84FF48050009069460A48FD
:1020E000FFF746FC08B1FEF7AFF8049404A90648D0
:1020F0000594FFF791FB002801D0FEF7A5F806B084
:1021000010BD000000040040B802002010B50022FD
:102110000B490C4801F00AF808B1FEF795F80A4996
:10212000084801F0D7F908B1FEF78EF8054801F02C
:1021300027FA002803D0BDE81040FEF785B810BD8F
:102140004C00002000030020B0000020FEE700004B
:1021500070B5114E0546002210213046FEF793F966
:10216000012002F086F8162000F0CCFC022002F0DC
:10217000B9F80024002000F0C5FC2855641CE4B226
:102180000C2CF7D3012210213046FEF77CF9BDE874
:102190007040042002F06DB80008014010B50A48F4
:1021A000FFF7D6FF08488178C27801EB0222074981
:1021B000CA810279407902EB00200882BDE8104014
:1021C00001F11C0002F0EEB8B80100200000002070
:1021D0000A480168486A02B20948002A01DDFF2165
:1021E00006E0496A09B2002901DA012100E08021F4
:1021F00081724FF0804100204862704770020020D9
:1022000000000020FEE72DE9F84F044640F68F7BE2
:1022100048F60F794FF480684FF0000AC0E1B0F83B
:10222000441011F00F0539D030F8256031047ED507
:1022300030F8251001EA0B0141F0800120F825104B
:1022400005EB850004EBC00797F8740107F5B47738
:1022500000286DD0F87802286BD03978226832F8DF
:10226000210048F68F73184048F2C003184322F843
:1022700021003978206830F82120B0F8503052041D
:102280007DD5022202EBC1015A1808EB4201415AE6
:102290008905890D009173D03A89DFE0C9062DD4F4
:1022A000018801EA090141F400410180206804F13C
:1022B0002805B0F850302978022202EBC1015A18E3
:1022C00008EB4201405AC0F309006064E16B084426
:1022D000E06300212046FEF78CFA94F824000028E1
:1022E0009CD0A869002899D194F82400216840F076
:1022F0008000A1F84C0084F824A051E1018804F585
:10230000B4750A0521D5B0F850202B78062101EBD1
:10231000C3010A4408EB4201405A04F52C71C0F392
:102320000903EB61EA88206801F052FF02E0B0E0A7
:1023300070E080E02068018801EA0B0141F0800133
:1023400001802046FEF7B5FE2AE10904D5D50188B3
:1023500001EA0B0141F0800101802068B0F85020B3
:102360002B78062101EBC3010A4408EB4201405AD5
:1023700083059B0DEB6110D0696971B101E061E0EB
:102380005FE0EA88206801F023FFE9696869084492
:10239000686100212046FEF735FA216808880205A9
:1023A000ABD4C0F301300328A7D0B1F850000844E3
:1023B000B0F80C14C1F30901A0F80C142A6900F25A
:1023C0000C403E2A09D95109D20600D1491E028883
:1023D0004FF4004343EA812109E0B2B15108D2072A
:1023E00000D0491C02884FF6FF7303EA81210A439B
:1023F0000280216808884BF68F72104080F44050AC
:1024000048F2800210430880CAE0018841F400418C
:102410000180EEE72068B0F850203B78062101EB00
:10242000C3010A4408EB4201415A8905890D009114
:1024300018D0FA8812E0324639462046FEF740FAB4
:1024400000900FE0062202EBC1015A1808EB42018E
:10245000415A8905890D009104D07A897969009BD8
:1024600001F0B6FEF86900990844F86179690098AE
:1024700008447861B86918B139690098814204D973
:1024800039782046FEF7BEF903E03946206801F0AE
:102490001BFC30062FD505EB850004EBC00120683E
:1024A00030F8252002EA090242F4004220F82520F3
:1024B00091F82B00283101281ED0F0056CD420683B
:1024C000B0F850300D78022202EBC5021A4408EB36
:1024D0004202805A8A69C0F30900824255D9121A11
:1024E0008A6154D04A6902444A61CA691044C86189
:1024F000206801F0E9FB53E0C1F818A0087B5246C0
:1025000008B3700620D5487810B1012812D03AE0FF
:102510002068B0F8502010440A7800EB0210B0F8A0
:102520000424C2F30902A0F80424B0F8042442F4FD
:10253000004206E02068B0F8503018440B7800EBF9
:102540000310A0F804241EE04B78206813B1012B7F
:1025500011D018E0B0F8502010440A7800EB0210B7
:10256000B0F80C24C2F30902A0F80C24B0F80C2433
:1025700042F4004205E0B0F8503018440B7800EB0C
:102580000310A0F80C24097802E0C1F818A0E9B201
:102590002046FEF72EF903E032462046FEF703FA06
:1025A0002068B0F8441009043FF539AE0020BDE8BA
:1025B000F88F704710B507217F2001F03DFF4121C2
:1025C000402001F039FF00217F2001F035FF8021FC
:1025D000402001F031FF0E217F2001F02DFF0D2161
:1025E000552001F029FF1B21562001F025FFE8218D
:1025F000572001F021FFD521582001F01DFF1421A3
:102600007F2001F019FFBC21422001F015FF742149
:10261000432001F011FF20214B2001F00DFF00218C
:102620004D2001F009FF0E21532001F005FF052187
:102630007F2001F001FF0421442001F0FDFE06216E
:102640004D2001F0F9FE4021512001F0F5FE40211E
:10265000532001F0F1FECA21552001F0EDFEE821E2
:102660005A2001F0E9FEEA215B2001F0E5FE31216C
:10267000612001F0E1FE6421622001F0DDFEB8215D
:102680006D2001F0D9FE0F216E2001F0D5FE022150
:10269000702001F0D1FE2A214A2001F0CDFE262132
:1026A000602001F0C9FE06217F2001F0C5FE7021E7
:1026B0006D2001F0C1FE60216E2001F0BDFE0421FD
:1026C0006F2001F0B9FE0221532001F0B5FE112167
:1026D000552001F0B1FE01217A2001F0ADFE51211B
:1026E0007D2001F0A9FE07217F2001F0A5FE102129
:1026F000412001F0A1FE3221422001F09DFE002187
:10270000432001F099FE08217F2001F095FE4F2122
:10271000712001F091FE09217F2001F08DFE1F2123
:10272000622001F089FE1F21632001F085FE032154
:10273000652001F081FE0321662001F07DFE1F214E
:10274000672001F079FE1F21682001F075FE03214A
:10275000692001F071FE03216A2001F06DFE1F2146
:102760006C2001F069FE1F216D2001F065FE04213F
:10277000512001F061FE2021532001F05DFE202157
:10278000542001F059FE0C21712001F055FE072163
:10279000722001F051FE0721732001F04DFE0A2145
:1027A0007F2001F049FE14214A2001F045FE14214A
:1027B0004C2001F041FE1921552001F03DFE14216D
:1027C0007F2001F039FE30214B2001F035FE03213E
:1027D0004C2001F031FE0B21612001F02DFE0A2179
:1027E000622001F029FE0221632001F025FE15215F
:1027F0007F2001F021FE02214C2001F01DFE02216C
:10280000562001F019FE9121412001F015FE0A2108
:102810004D2001F011FE0C217F2001F00DFE102152
:102820004A2001F009FE0C214B2001F005FE402159
:102830004C2001F001FE2521412001F0FDFD182171
:10284000552001F0F9FD1421562001F0F5FD0A2173
:10285000492001F0F1FD0021422001F0EDFD2D2184
:10286000432001F0E9FD0C21442001F0E5FD1A218F
:10287000542001F0E1FD0D215A2001F0DDFD1E2163
:102880005F2001F0D9FD05215B2001F0D5FD0F216E
:102890005E2001F0D1FD0D217F2001F0CDFDDD2175
:1028A000482001F0C9FD03214F2001F0C5FD492159
:1028B000522001F0C1FD0021512001F0BDFD5B213E
:1028C000542001F0B9FD0021532001F0B5FD642131
:1028D000562001F0B1FD0021552001F0ADFDA521EC
:1028E000582001F0A9FD0221572001F0A5FD292162
:1028F0005A2001F0A1FD47215B2001F09DFD8121BF
:102900005C2001F099FD40215D2001F095FDDC2166
:10291000712001F091FD0721702001F08DFD002153
:10292000732001F089FD0821722001F085FDDC2172
:10293000752001F081FD0721742001F07DFD00214B
:10294000772001F079FD0821762001F075FD102136
:102950007F2001F071FDD0214C2001F06DFD0021A0
:102960007F2001F069FD63214F2001F065FD00210A
:102970004E2001F061FD6321522001F05DFD002138
:10298000512001F059FD5421084601F055FD102158
:102990005A2001F051FD4F21772001F04DFD01211A
:1029A000472001F049FD40215B2001F045FD6021F9
:1029B000642001F041FD0621652001F03DFD132159
:1029C000662001F039FD0F21672001F035FD01215E
:1029D000782001F031FD9C21792001F02DFD0021AE
:1029E000402001F029FD0221552001F025FD702134
:1029F000232001F021FD0121222001F01DFD0120F5
:102A000001F05CFC00246C2001F0FEFC802806D064
:102A1000012001F053FC641CE4B23C2CF3D33C2CA9
:102A20000BD114217F2001F007FD00216C2001F063
:102A300003FD00217F2001F0FFFC0021222001F096
:102A4000FBFC0021552001F0F7FC07217F2001F05D
:102A5000F3FC4021084601F0EFFC0021BDE81040E6
:102A60007F2001F0E9BC000070B5322001F026FCA7
:102A70001F4D002210212846FDF705FD012001F021
:102A8000F8FB012210212846FDF7FDFC012001F092
:102A9000F0FB002210212846FDF7F5FC012001F093
:102AA000E8FB5A213A2001F0C7FC052001F006FCA2
:102AB000FFF780FD012210212846FDF7E4FC0120EC
:102AC00001F0D7FB0224204601F09EFC022001F019
:102AD00009FC641CE4B2062CF5D901221021284619
:102AE000FDF7D1FCBDE87040042001F0C2BB00003E
:102AF000000801400246002092680A4200D00120EE
:102B00007047000010B5094C034602212046FFF72C
:102B1000F1FF0028F9D0E360234601211846FFF7B2
:102B2000E9FF0028F9D0D868C0B210BD00300140DC
:102B30007047FDF7A7BD30B593B028216846FDF773
:102B40000AFB14210AA8FDF706FB002401200F94BC
:102B500010941194010412948DE8130004904FF422
:102B6000E010CDE90810022507956846FEF716FC2F
:102B700008B172B6FEE70F20CDE90A054FF4806078
:102B8000CDE90C4002210AA80E94FEF73BFB08B1E8
:102B900072B6FEE710200F9012940FA8FEF7BCFA51
:102BA000002801D072B6FEE713B030BD70470000B8
:102BB0000148FFF70FB80000B8020020F0B5026826
:102BC000164B174C174D4FF08047984205D0B8422E
:102BD00003D0A04201D0A84203D122F070064A6877
:102BE0003243984205D0B84203D0A04201D0A84257
:102BF00003D122F44074CA6822434C6922F0800257
:102C0000224302608A68C2620A688262984201D1E5
:102C10000969016301214161F0BD0000002C014000
:102C2000000400400008004010B501F01F0301211E
:102C3000046A99408C430462016A9A40114301621C
:102C400010BD10B5846842EA032224F47F440A438D
:102C50002243826010BD826822F070020A4342F073
:102C600007018160704710B5036A046A24F001040B
:102C70000462846924F0F00444EA021423F00A0296
:102C80000A438461026210BD10B5036A046A24F02D
:102C900010040462846923F0A00324F4704444EA1D
:102CA000023243EA01118261016210BD064900202F
:102CB000A1F10A0201EBC0039B8822F81030401CEE
:102CC000C0B20428F6D370472C00002070B50A4E1D
:102CD000002406F10A0500BF36F8140038B905EBE8
:102CE000C400808826F8140055F834008047641C1E
:102CF000E4B2042CF0D370BD2200002010B5D0F84F
:102D0000B42252689047002010BD134610B50A4601
:102D1000002100F027FB002010BD134610B50A4625
:102D2000002100F0BAFB002010BD10B50446802140
:102D300000F098FB2046BDE81040002100F092BB57
:102D400010B505210023C0F894121A46194600F068
:102D500009FB002010BD10B50223C261C0F89432F7
:102D6000026213460A46002100F097FB002010BDC6
:102D700010B504210023C0F894121A46194600F039
:102D80008CFB002010BD000010B50A46024903A0CC
:102D900000F0E2F8004810BDC40500204849442076
:102DA000436F6E6669670000122008800048704714
:102DB0006C00002010B50A46024903A000F0CCF8D0
:102DC000004810BDC405002048494420496E746580
:102DD0007266616365000000042008800048704747
:102DE0006800002010B50A46024903A000F0B4F8BC
:102DF000004810BDC405002053544D6963726F65CF
:102E00006C656374726F6E696373000010B50A4677
:102E1000024903A000F0A0F8004810BDC40500203E
:102E200053544D33322048756D616E20696E746560
:102E3000726661636500000010B51A2008800A48B8
:102E40000168001D0468001D0068081809D00822E8
:102E50000649FEF78DFF0549042210312046FEF792
:102E600087FF0248801E10BDE8F7FF1F8200002088
:102E7000F8B504460020ADF8000048880D46010A68
:102E8000082948D2DFE801F04704091747473C45C5
:102E9000D4F8B012207C0A6819E0207C02260028B1
:102EA000D4F8B40205D0C16A684688470146467026
:102EB0003EE0816AF8E7C0B206282CD2DFE800F0D5
:102EC000030A1014181CD4F8B002426805E06946E1
:102ED00090471CE0D4F8B0028268E2B1207CF6E7AB
:102EE000D4F8B002C268F8E7D4F8B0020269F4E797
:102EF000D4F8B0024269F0E7D4F8B0028269ECE796
:102F0000207C40B9D4F8B402416B6846884701463A
:102F10000EE0207C20B129462046FFF706FFF8BDD1
:102F2000D4F8B402016B6846884701460720487010
:102F3000BDF8000048B1EA8852B1824200D9024689
:102F4000ADF800202046FFF706FFE8880028E6D10C
:102F50002046FFF70DFFF8BD70B5002300281ED0F6
:102F60000446002502E06D1CEDB2641C2678002E9C
:102F7000F9D1022404EB450414801278CA545B1C76
:102F80000322CA5400245B1C06E0CA545B1CDAB25C
:102F90008C54521CD3B2401C0278002AF5D170BD6B
:102FA00001004FF0000004D0012901D0022901D016
:102FB0000220704701207047D0F8B8020021017349
:102FC0000846704770B50446812100F0CDF8002511
:102FD000E562D4F8B80218B100F02FFCC4F8B8527A
:102FE000002070BD0A210180004870476001002068
:102FF0002221018000487047E80000202221018042
:10300000004870470C0100202221018000487047D1
:103010003001002010B5044606230322812100F070
:1030200095F90120E062102000F008FCC4F8B80215
:1030300018B100210173084610BD022010BD10B563
:10304000134690F89C42D0F8B822032C07D1147B89
:103050002CB9012414730A46812100F01EFA0020C5
:1030600010BD000038B503460022D0F8B802ADF814
:10307000002014460A7812F0600216D0202A4AD1A5
:103080004A78022A0ED0032A06D00A2A06D00B2A32
:1030900041D18978016042E001222BE04988090A88
:1030A00041603CE00122011D25E04A7832B1062A48
:1030B0000BD00A2A23D00B2A2DD128E093F89C02AA
:1030C000032828D10222694615E048882222B2EB63
:1030D000102F05D1CA88452A00D94522124809E097
:1030E0002122B2EB102F16D10F48CA881838092AAE
:1030F00000D9092201461846FFF72DFE0FE093F88C
:103100009C22032A07D1012200F10801F3E793F87A
:103110009C22032A05D01846FFF707FE022420460A
:1031200038BD89788160FAE76C01002010B580B164
:10313000D0F8B43213B10023C0F8B43209B1C0F8EA
:10314000B012012180F89C12027000F0BBF8002040
:1031500010BD022010BD10B5D0F8C002FDF782FBF3
:10316000BDE81040FFF71CBF10B5D0F8C002FDF756
:1031700053FBBDE81040FFF713BF2DE9F0411746A0
:10318000044651B1D4F8B40242691AB194F89C02D1
:10319000032851D00220BDE8F081D4F894320025F4
:1031A00004F11400022B03D0042B3AD0C3B33CE04B
:1031B000D0E903639E4207D9F11AC1608AB2394649
:1031C0002046FFF7AAFD12E08068B0FBF3F103FB95
:1031D000110199B9984211D3D4F8981288420DD2AE
:1031E000002211462046FFF798FDC4F898520023AC
:1031F0001A461946204600F0B5F816E0D4F8B40295
:10320000C16829B194F89C02032801D1204688475F
:103210008021204600F026F92046FFF791FD04E0CA
:10322000FFE78021204600F01DF994F8A002012854
:1032300004D184F8A05201E0204690470020AAE77C
:1032400070B51546044649B1D4F8B40282691AB182
:1032500094F89C02032830D0022070BDD4F8941258
:1032600004F5AA70032902D005291ED027E0D0E971
:1032700003218A420BD9531AC3600846834200D304
:1032800003469AB229462046FFF73FFD17E0D4F8DF
:10329000B402016929B194F89C02032801D12046A7
:1032A00088472046FFF764FD09E000200146C4F886
:1032B0009402204600F0D6F801E020469047002016
:1032C00070BD000010B517490446C1F8EC02C0F803
:1032D000C01215480860082048600220886000205D
:1032E0008861C86108620846FDF728FE08B1FCF74E
:1032F000ABFF0022D4F8C0021823114604F5307445
:10330000FDF758FA5823002280212068FDF752FA71
:103310004FF48073002281212068FDF74BFA0020D2
:1033200010BD0000D8070020005C00400A0601F034
:103330007F01D0F8C00201EB810100EBC10002D592
:1033400090F82A00704790F86A01704710B51C4643
:103350001346D0F8C0022246FDF7C1FCBDE810407C
:10336000FFF71EBE10B5D0F8C002FDF7E5FCBDE8C2
:103370001040FFF715BE70B50022044640231146E9
:10338000FFF7E4FF40260125C4F8646133460022BC
:1033900080212046C4F85851FFF7D8FF6662A56126
:1033A00084F89C520020C4F894026060C4F8A4021F
:1033B000D4F8B80228B1D4F8B402002142682046FB
:1033C0009047002070BD90F89C12042903D190F81A
:1033D0009D1280F89C120020704710B590F89C1246
:1033E000032904D1D0F8B412C96901B1884700207B
:1033F00010BD01740020704710B5D0F8C002FDF771
:1034000044FEBDE81040FFF7CBBD70B5044600F5A3
:103410002A70054600F04AF80120C4F89402B4F876
:10342000AE02C4F8980294F8A80210F01F010AD066
:1034300001290DD0022910D000F08001204600F0B3
:1034400011F8002070BD2946204600F09EF8F8E7EC
:103450002946204600F0CAF9F3E72946204600F045
:103460001DF9EEE710B5D0F8C002FDF77CFCBDE811
:103470001040FFF795BD10B5D0F8C002FDF720FE53
:10348000BDE81040FFF78CBD90F89C1280F89D12AB
:10349000042180F89C120020704710B5D0F8C002BB
:1034A000FDF79AFCBDE81040FFF77ABD0A7802707C
:1034B0004A7842708A78CB7802EB032242800A79FC
:1034C0004B7902EB032282808A79C97902EB0121D0
:1034D000C18070470246002011B1C2F8B412704793
:1034E0000220704710B5D0F8B42202241AB1126835
:1034F000904700B90024204610BD000070B50E466C
:103500001E4D897804462970012931D894F89C020F
:1035100002280BD003280FD031462046FFF705FCC8
:1035200029782046BDE87040FFF7E8BBD9B10320F9
:10353000616084F89C0209E071B16068884212D031
:10354000C1B22046FFF7DAFB297861602046FFF719
:10355000C9FF02280CD006E0022084F89C02204615
:103560006160FFF7CBFB2046BDE87040FFF700BC71
:1035700031462046BDE87040FFF7D7BBAC000020C5
:1035800010B5FFF778FF002010BD2DE9F0410A7853
:10359000002612F0600208D0202A01D0402A70D103
:1035A000D0F8B422926890476DE04B780022012554
:1035B0000A2B66D2DFE803F0405D655765080565B4
:1035C0002C29FFF755FC5EE004468888D8B9C888E6
:1035D000C8B94888802816D200F07F0794F89C026A
:1035E000032810D084F89E7239462046FFF704FF66
:1035F0002046FFF7BDFB1FB1022084F89C0242E089
:1036000084F89C523FE020463BE0FFF777FF3AE02A
:10361000CB88012B35D190F89C32012B04D0022BA2
:1036200002D0032B2DD104E08260012200F10801B9
:1036300016E00122011D13E090F89C22012A03D01C
:10364000022A01D0032A1CD1CA88022A19D1C560D6
:10365000D0F8A41209B10321C160022200F10C01CB
:10366000FFF779FB0FE0498801290CD1C0F8A4527B
:1036700011E090F89C32012B08D0022B06D0032BCE
:1036800004D0FFF752FB3046BDE8F081498801299C
:10369000F9D1C0F8A422FFF76BFBF4E72DE9F04164
:1036A0000A46044610780027097910F060030AD012
:1036B000202B01D0402B50D1D4F8B402114683689E
:1036C000204698478FE0C0F34110012806D050787B
:1036D000D0B301282AD003283FD107E0D4F8B402A0
:1036E000114683682046BDE8F041184794F89C02D3
:1036F000022802D0032872D10AE071B380296ED06B
:103700002046FFF7AFFE80212046FFF7ABFE6AE0C0
:10371000508838B931B1802904D0D08810B92046FA
:10372000FFF7A0FE2046FFF723FB5CE094F89C0225
:103730000228E2D0032852D1508898BB4806F1D025
:103740002046FFF708FDEDE7FFE794F89C0200260E
:10375000022803D0032842D112E040E009B18029B9
:103760003DD1080601F07F0000EB800004EB8001F2
:1037700001D5143101E001F5AA7102220E602AE0A0
:10378000080601F00F0000EB800004EB80000AD572
:10379000806920B301F07F0000EB800004EB80051E
:1037A00014350BE01FE0D0F85801C0B101F07F00E4
:1037B00000EB800004EB800505F5AA7541B1802976
:1037C00006D02046FFF7B2FD10B10120286000E0CE
:1037D0002E60022229462046FFF7BDFA03E011467B
:1037E0002046FFF7A2FA3846BDE8F08170B50546DD
:1037F00008780C4610F0600003D0202801D0402843
:1038000016D195F89C02012803D0022801D0032884
:103810000ED1207901280BD8D5F8B4028268284649
:103820009047E188014306D12846FFF7A1FA02E05C
:103830002846FFF77AFA002070BD704700487047AD
:10384000C40700202DE9F0470C78002630F824301A
:1038500048F68F121340CA78002A78D0012A7CD00B
:10386000022A02D0032A75D0012648F280021343AF
:1038700020F824300D7830F8253048F68F74234036
:103880002B43134320F825300D7B48F2C00948F63E
:10389000BF734CF2800A4BF68F77EDB3CD7891F879
:1038A00000C0022D30F82C507DD048F68F6805EA14
:1038B0000805154320F82C50B0F8505091F800C07E
:1038C000054405EB0C15B1F808C02CF0010CA5F867
:1038D00000C4B0F8505091F800C0054405EB0C1539
:1038E000B1F80AC02CF0010CA5F808C44D78002DE1
:1038F0007ED00D7830F825C05FEA4C4C07D530F803
:1039000025C00CEA040C4CEA0A0C20F825C091F8FA
:1039100000C030F82C5000E022E06D0606D530F8EB
:103920002C50254045EA090520F82C50CC780D781C
:10393000012C30F8254004EA03047CD084F02003F5
:10394000134320F82530C1E001E006E002E043F433
:1039500000738AE743F4C06387E743F4806384E736
:103960004D784DB3B0F850500F78054405EB07156E
:10397000CF8827F00107A5F800740F7830F827509A
:103980006D0606D530F82750254045EA090520F890
:103990002750CC78012C07D00C7830F8241019402F
:1039A00081F0200104E064E00C7830F82410194024
:1039B000114320F8241090E0B0F850300D78034403
:1039C00003EB0513CD8825F00105A3F80854B0F8E2
:1039D00050300D78034403EB0513B3F80C54C5F3D2
:1039E0000905A3F80C540D6903F20C433E2D00E0C9
:1039F00045E00BD94FEA551CED0601D1ACF1010CA5
:103A00001D884FF4004848EA8C2C0BE035B34FEA90
:103A1000550CED0701D00CF1010C1D884FF6FF7815
:103A200008EA8C2C45EA0C051D800D7830F825300D
:103A30005B0408D500E046E030F82530234043EA37
:103A40000A0320F82530097861B130F821303B4075
:103A500083F40053134320F821303EE01D8845F4E1
:103A60000045E1E70188394081F44051114301806C
:103A700033E0254048F2801845EA08051AE791F836
:103A800000C030F82C506D0406D530F82C5025407D
:103A900045EA0A0520F82C5091F800C030F82C5067
:103AA0006D0606D530F82C50254045EA090520F86A
:103AB0002C500D7830F825403C4084F44054144399
:103AC00020F8254070E7144320F825400B7830F8A3
:103AD00023103940114320F823103046BDE8F08709
:103AE000002070472DE9F04391F80C804F780A7858
:103AF00048F6BF7C4BF68F7948F2800348F2C00548
:103B00004CF2800648F68F74B8F1000F28D0002FD1
:103B100030F822704FEA474748D0002F05DA30F8D6
:103B200022702740374320F822700A7830F822703C
:103B30007F0605D530F8227027402F4320F82270E9
:103B40000D7830F825202240324320F825200C78CB
:103B500030F8242002EA0C021A4320F824201AE04C
:103B60007FB130F82260760605D530F82260264015
:103B70002E4320F822600A7830F8221001EA0C0166
:103B80000EE030F822506D0405D530F82250254063
:103B9000354320F822500A7830F8221001EA090152
:103BA000194320F822100020BDE8F083002F05DA29
:103BB00030F822702740374320F822700A7830F816
:103BC0002260760605D530F8226026402E4320F884
:103BD00022600E7830F8262022402A4320F8262042
:103BE0000C7830F8242002EA09021A4320F8242035
:103BF000C1E70020704700207047012120F8401FD6
:103C000000210180818001820846704730F8401F02
:103C100021F43F410180002070470020704730B5FB
:103C20000A7BB2BB4A7848F68F7548F28004C2B16D
:103C30000B7830F82320520607D530F823202A408D
:103C400048F2C0052A4320F82320CA78012A20D050
:103C50000A7830F8221048F6BF73194081F020012D
:103C600014E00A7830F822305B0407D530F82230AF
:103C70002B404CF280052B4320F822300A7830F894
:103C800022104BF68F73194081F44051214320F8E4
:103C90002210002030BD10B54A780978002A48F279
:103CA000800330F8212005D048F6BF74224082F00E
:103CB000100204E04BF68F74224082F480521A43C3
:103CC00020F82120002010BD2DE9F0470D464B784B
:103CD000097B04464FF0000948F68F7248F2800ACB
:103CE0004FF400474FF6FF78012B09D000296FD021
:103CF000E87802286DD001286CD00120BDE8F0875B
:103D0000AE692869864200D9064691B1E978022950
:103D10001ED0286A801B2862287834F820104906B3
:103D2000B4F85010214401EB001073D5A0F80C64D6
:103D300016E1B3B2EA882046696900F067FAB4F880
:103D400050002978204400EB0110A0F804640DE134
:103D5000296A814277D9297834F82100104048F245
:103D60008012104324F82100286A801B28622878DA
:103D700034F820104906697871D511B101292AD08B
:103D800030E0B4F85010214401EB0010B0F80C14EE
:103D9000C1F30901A0F80C1400F20C403E2E07D923
:103DA0007109F20600D1491E028847EA812107E025
:103DB0004EB17108F20700D0491C028808EA81213F
:103DC0000A4302800EE0018841F40041018009E0CD
:103DD000F1E020E195E1B4F85020111901EB001059
:103DE000A0F80C646A89B3B22046696900F00EFA43
:103DF0006869304468612969286A884202D9801B51
:103E0000286202E00646C5F82090687818B10128BB
:103E10002BD032E02FE0B4F850002978204400EB9A
:103E20000110B0F80414C1F30901A0F8041400F261
:103E300004403E2E08D97109F20600D1491E0288BD
:103E400047EA812108E0A1E056B17108F20700D0ED
:103E5000491C028808EA81210A4302800DE00EE035
:103E6000018841F40041018007E0B4F8500029784E
:103E7000204400EB0110A0F804642A8971E011B11C
:103E8000012927D02DE0B4F85010214401EB001097
:103E9000B0F80414C1F30901A0F8041400F20440BE
:103EA0003E2E07D97109F20600D1491E028847EA61
:103EB000812107E04EB17108F20700D0491C028849
:103EC00008EA81210A4302800BE0018841F40041A5
:103ED000018006E0B4F85010214401EB0010A0F876
:103EE00004642A89B3B22046696900F08FF96869D1
:103EF000304468612969286A884202D9801B286297
:103F000002E00646C5F82090687810B1012836D046
:103F100026E0B4F850002978204400EB0110B0F8F6
:103F20000C14C1F30901A0F80C1400F20C403E2E51
:103F300007D97109F20600D1491E028847EA81219A
:103F400007E04EB17108F20700D0491C028808EA68
:103F500081210A43028003E0018841F4004101808D
:103F60006A89B3B22046696900F050F9297834F8BB
:103F7000210048F6BF72104080F030000FE1B4F825
:103F800050100819297800EB0110CFE62A7834F890
:103F9000220048F68F63184040EA0A0024F8220005
:103FA000B4F850002A78204400EB02108BB2A0F83D
:103FB00004342A89D6E7A9692869814202D9091AF5
:103FC000A96102E00846C5F81890B4F850102A78A4
:103FD000214401EB0211B1F80C24C2F30902A1F84B
:103FE0000C2401F20C413E287DD94209C00600D1C3
:103FF000521E088847EA82220AE0088840F40040FE
:1040000007E04208C00700D0521C088808EA822254
:1040100010430880BBE033BBB4F85000297820443B
:1040200000EB0110B0F80414C1F30901A0F8041466
:10403000296900F204403E2907D94B09C90600D17D
:104040005B1E018847EA832307E041B14B08C9079B
:1040500000D05B1C018808EA8323194302E0018831
:1040600041F400410180687810B1012828D030E087
:10407000B4F850002978204400EB0110B0F80C147B
:10408000C1F30901A0F80C14296900F20C403E2983
:1040900007D94B09C90600D15B1E018847EA832373
:1040A00007E041B14B08C90700D05B1C018808EA52
:1040B0008323194302E0018841F40041018008E0B4
:1040C000B4F850100819297800EB0110298AA0F8DB
:1040D0000C14E869C0B3297834F82100430401D5F1
:1040E000430605D400E046E044F2400318424ED1B6
:1040F00034F82100104048F2C002104324F8210097
:1041000045E0A9692869814202D9091AA96102E03A
:104110000846C5F8189013BBB4F850102A7821440B
:1041200001EB0211B1F80424C2F30902A1F804243E
:1041300001F204413E2808D94209C30600D1521EAB
:104140000B8847EA822208E021E078B14208C307E1
:1041500000D0521C0B8808EA822213430B80697836
:1041600000293FF42EAF012909D010E00A8842F45B
:1041700000420A80F3E700287FF443AF3DE7B4F83C
:10418000502011192A7801EB0211A1F80C042978AA
:1041900034F821004BF68F72104080F4405040EA12
:1041A0000A0024F821000020A8E50021A0F844100E
:1041B0004FF43F41A0F84010002070470148FCF741
:1041C00023BE0000D8070020B0F84400704700006C
:1041D00010B500EB42005C0800F5806009D000BF1C
:1041E00030F8042B01F8012B120A01F8012B641E90
:1041F000F6D1DA0701D00088087010BD00207047A2
:1042000011B98021A0F84C100020704710B55B1C3C
:1042100000EB42005B0800F5806009D011F8012B2B
:1042200011F8014B42EA042220F8042B5B1EF5D161
:1042300010BDFEE70907090E002804DB00F1E020AD
:1042400080F80014704700F00F0000F1E02080F8C3
:10425000141D704702E008C8121F08C1002AFAD1D5
:1042600070477047002001E001C1121F002AFBD1F6
:1042700070474FF0E021486100228A610120086107
:104280000869C30701D0C003FAD50A618A61704783
:104290004FF0E0210A6922F004020A610649C008D1
:1042A00000EB40020870C2EBC0104FF6FF7202EA4A
:1042B000C000488070470000B201002008494988CA
:1042C00048434FF0E02148610020886101220A61E3
:1042D0000A69D30701D0D203FAD508618861704713
:1042E000B20100200849097848434FF0E0214861B5
:1042F0000020886101220A610A69D30701D0D20334
:10430000FAD5086188617047B2010020FCF7C2F954
:10431000FEF711FC4820FFF7BBFFFDF7D9FDFDF7C5
:10432000F5FEFDF765FEFDF7BDFEFDF787FEFDF727
:104330003FFE12480068016841F0400101606420BE
:10434000FBF784FFFEF790FB0D4800F01FF80C48C8
:104350001C388089FBF748FF0A496FF001000968A3
:1043600008610848FDF7D8FAFEF7A0FC3C21064892
:10437000FDF7E8FBFEF7AAFCFCE7000018020020AE
:104380001C000020B802002070020020017821F0FB
:10439000070101700021A0F80110A0F8031041717D
:1043A00070470000114910B50A780178144C62F387
:1043B00000010F4A0170127862F341010D4A017049
:1043C000127862F3820101700B4906220988A0F875
:1043D00001100A490988A0F80310217841710146AB
:1043E0000848FEF72CFE8020207010BD0000002041
:1043F00001000020020000200E000020100000201C
:104400000A0000200003002010B5044600221021FD
:104410000848FCF738F80120FFF72BFF2046FEF78D
:1044200071FB0520FFF75EFFBDE81040FF20FEF79F
:1044300069BB00000008014070B50E4D0E460446F1
:10444000002210212846FCF71EF80120FFF711FF7B
:104450008034E0B2FEF756FB3046FEF753FB0122F4
:1044600010212846FCF70FF8BDE870400520FFF743
:1044700039BF0000000801400102020304050607DD
:1044800008090A0B0C0D0E0F1010000000000000B0
:1044900000000102030406070809000000000102F1
:1044A00003040000C444000800000020B80100001C
:1044B00090010008B0450008B8010020100D000070
:1044C00064420008C1031EDC0513F51D33081413F4
:1044D0009D213308011AD108293313751E3308644E
:1044E00013A92D1B08D9041AE504130D2E1B083936
:1044F000041A890C1AB504170403090412013202C4
:10450000164083042B571D0201020345031A1A03A8
:10451000296482105324F41315301408C52F1B0886
:104520006508811AB91001101AFD141AF1041A094C
:10453000282AE5081302221301011DE0320904595B
:10454000140301021509211101140122452E07054A
:104550008103066D091F2419170923486912314B7D
:104560000A06F429CC100E05010902A1010509195A
:1045700001290515180F2501950575018102950181
:10458000750381031C1530093116168026FF7F360E
:10459000701C8046FF7F75109502810609381581D1
:1045A000257F3581457F750895018106C000000093
:04000005080000ED02
:00000001FF
